{
  "contractName": "Voting",
  "abi": [
    {
      "inputs": [],
      "stateMutability": "nonpayable",
      "type": "constructor"
    },
    {
      "anonymous": false,
      "inputs": [
        {
          "indexed": true,
          "internalType": "address",
          "name": "previousOwner",
          "type": "address"
        },
        {
          "indexed": true,
          "internalType": "address",
          "name": "newOwner",
          "type": "address"
        }
      ],
      "name": "OwnershipTransferred",
      "type": "event"
    },
    {
      "anonymous": false,
      "inputs": [
        {
          "indexed": false,
          "internalType": "uint256",
          "name": "proposalId",
          "type": "uint256"
        }
      ],
      "name": "ProposalRegistered",
      "type": "event"
    },
    {
      "anonymous": false,
      "inputs": [
        {
          "indexed": false,
          "internalType": "address",
          "name": "voter",
          "type": "address"
        },
        {
          "indexed": false,
          "internalType": "uint256",
          "name": "proposalId",
          "type": "uint256"
        }
      ],
      "name": "Voted",
      "type": "event"
    },
    {
      "anonymous": false,
      "inputs": [
        {
          "indexed": false,
          "internalType": "address",
          "name": "voterAddress",
          "type": "address"
        }
      ],
      "name": "VoterRegistered",
      "type": "event"
    },
    {
      "anonymous": false,
      "inputs": [
        {
          "indexed": false,
          "internalType": "enum Voting.WorkflowStatus",
          "name": "previousStatus",
          "type": "uint8"
        },
        {
          "indexed": false,
          "internalType": "enum Voting.WorkflowStatus",
          "name": "newStatus",
          "type": "uint8"
        }
      ],
      "name": "WorkflowStatusChange",
      "type": "event"
    },
    {
      "inputs": [],
      "name": "owner",
      "outputs": [
        {
          "internalType": "address",
          "name": "",
          "type": "address"
        }
      ],
      "stateMutability": "view",
      "type": "function",
      "constant": true
    },
    {
      "inputs": [
        {
          "internalType": "uint256",
          "name": "",
          "type": "uint256"
        }
      ],
      "name": "proposalsArray",
      "outputs": [
        {
          "internalType": "string",
          "name": "description",
          "type": "string"
        },
        {
          "internalType": "uint256",
          "name": "voteCount",
          "type": "uint256"
        }
      ],
      "stateMutability": "view",
      "type": "function",
      "constant": true
    },
    {
      "inputs": [],
      "name": "renounceOwnership",
      "outputs": [],
      "stateMutability": "nonpayable",
      "type": "function"
    },
    {
      "inputs": [
        {
          "internalType": "address",
          "name": "newOwner",
          "type": "address"
        }
      ],
      "name": "transferOwnership",
      "outputs": [],
      "stateMutability": "nonpayable",
      "type": "function"
    },
    {
      "inputs": [],
      "name": "workflowStatus",
      "outputs": [
        {
          "internalType": "enum Voting.WorkflowStatus",
          "name": "",
          "type": "uint8"
        }
      ],
      "stateMutability": "view",
      "type": "function",
      "constant": true
    },
    {
      "inputs": [
        {
          "internalType": "address",
          "name": "_addr",
          "type": "address"
        }
      ],
      "name": "getVoter",
      "outputs": [
        {
          "components": [
            {
              "internalType": "bool",
              "name": "isRegistered",
              "type": "bool"
            },
            {
              "internalType": "bool",
              "name": "hasVoted",
              "type": "bool"
            },
            {
              "internalType": "uint256",
              "name": "votedProposalId",
              "type": "uint256"
            }
          ],
          "internalType": "struct Voting.Voter",
          "name": "",
          "type": "tuple"
        }
      ],
      "stateMutability": "view",
      "type": "function",
      "constant": true
    },
    {
      "inputs": [],
      "name": "getWinner",
      "outputs": [
        {
          "internalType": "string",
          "name": "",
          "type": "string"
        }
      ],
      "stateMutability": "view",
      "type": "function",
      "constant": true
    },
    {
      "inputs": [
        {
          "internalType": "string",
          "name": "_desc",
          "type": "string"
        }
      ],
      "name": "addProposal",
      "outputs": [],
      "stateMutability": "nonpayable",
      "type": "function"
    },
    {
      "inputs": [
        {
          "internalType": "address",
          "name": "_addr",
          "type": "address"
        }
      ],
      "name": "addVoter",
      "outputs": [],
      "stateMutability": "nonpayable",
      "type": "function"
    },
    {
      "inputs": [
        {
          "internalType": "address",
          "name": "_addr",
          "type": "address"
        }
      ],
      "name": "deleteVoter",
      "outputs": [],
      "stateMutability": "nonpayable",
      "type": "function"
    },
    {
      "inputs": [
        {
          "internalType": "address",
          "name": "_addr",
          "type": "address"
        },
        {
          "internalType": "uint256",
          "name": "_id",
          "type": "uint256"
        }
      ],
      "name": "setVote",
      "outputs": [],
      "stateMutability": "nonpayable",
      "type": "function"
    },
    {
      "inputs": [],
      "name": "startProposalsRegistering",
      "outputs": [],
      "stateMutability": "nonpayable",
      "type": "function"
    },
    {
      "inputs": [],
      "name": "endProposalsRegistering",
      "outputs": [],
      "stateMutability": "nonpayable",
      "type": "function"
    },
    {
      "inputs": [],
      "name": "startVotingSession",
      "outputs": [],
      "stateMutability": "nonpayable",
      "type": "function"
    },
    {
      "inputs": [],
      "name": "endVotingSession",
      "outputs": [],
      "stateMutability": "nonpayable",
      "type": "function"
    },
    {
      "inputs": [],
      "name": "votesTally",
      "outputs": [],
      "stateMutability": "nonpayable",
      "type": "function"
    }
  ],
  "bytecode": "0x60806040523480156200001157600080fd5b5062000032620000266200007660201b60201c565b6200007e60201b60201c565b60008060146101000a81548160ff021916908360058111156200005a5762000059620003aa565b5b021790555062000070336200014260201b60201c565b620005c8565b600033905090565b60008060009054906101000a900473ffffffffffffffffffffffffffffffffffffffff169050816000806101000a81548173ffffffffffffffffffffffffffffffffffffffff021916908373ffffffffffffffffffffffffffffffffffffffff1602179055508173ffffffffffffffffffffffffffffffffffffffff168173ffffffffffffffffffffffffffffffffffffffff167f8be0079c531659141344cd1fd0a4f28419497f9722a3daafe3b4186f6b6457e060405160405180910390a35050565b620001526200007660201b60201c565b73ffffffffffffffffffffffffffffffffffffffff16620001786200038160201b60201c565b73ffffffffffffffffffffffffffffffffffffffff1614620001d1576040517f08c379a0000000000000000000000000000000000000000000000000000000008152600401620001c8906200043a565b60405180910390fd5b60006005811115620001e857620001e7620003aa565b5b600060149054906101000a900460ff1660058111156200020d576200020c620003aa565b5b1462000250576040517f08c379a00000000000000000000000000000000000000000000000000000000081526004016200024790620004d2565b60405180910390fd5b60011515600260008373ffffffffffffffffffffffffffffffffffffffff1673ffffffffffffffffffffffffffffffffffffffff16815260200190815260200160002060000160009054906101000a900460ff1615151415620002ea576040517f08c379a0000000000000000000000000000000000000000000000000000000008152600401620002e19062000544565b60405180910390fd5b6001600260008373ffffffffffffffffffffffffffffffffffffffff1673ffffffffffffffffffffffffffffffffffffffff16815260200190815260200160002060000160006101000a81548160ff0219169083151502179055507fb6be2187d059cc2a55fe29e0e503b566e1e0f8c8780096e185429350acffd3dd81604051620003769190620005ab565b60405180910390a150565b60008060009054906101000a900473ffffffffffffffffffffffffffffffffffffffff16905090565b7f4e487b7100000000000000000000000000000000000000000000000000000000600052602160045260246000fd5b600082825260208201905092915050565b7f4f776e61626c653a2063616c6c6572206973206e6f7420746865206f776e6572600082015250565b600062000422602083620003d9565b91506200042f82620003ea565b602082019050919050565b60006020820190508181036000830152620004558162000413565b9050919050565b7f566f7465727320726567697374726174696f6e206973206e6f74206f70656e2060008201527f7965740000000000000000000000000000000000000000000000000000000000602082015250565b6000620004ba602383620003d9565b9150620004c7826200045c565b604082019050919050565b60006020820190508181036000830152620004ed81620004ab565b9050919050565b7f416c726561647920726567697374657265640000000000000000000000000000600082015250565b60006200052c601283620003d9565b91506200053982620004f4565b602082019050919050565b600060208201905081810360008301526200055f816200051d565b9050919050565b600073ffffffffffffffffffffffffffffffffffffffff82169050919050565b6000620005938262000566565b9050919050565b620005a58162000586565b82525050565b6000602082019050620005c260008301846200059a565b92915050565b61274980620005d86000396000f3fe608060405234801561001057600080fd5b50600436106101005760003560e01c8063a7bfab1611610097578063ee74c67811610066578063ee74c67814610215578063f2fde38b1461021f578063f4ab9adf1461023b578063f86c67791461025757610100565b8063a7bfab16146101c7578063c7038a4e146101d1578063c88af42f146101db578063d4f50f98146101e557610100565b806388e1c739116100d357806388e1c739146101515780638da5cb5b1461016d5780638e7ea5b21461018b578063a1edffa2146101a957610100565b80632fdae3c5146101055780636970993c146101215780636e2bbc9f1461012b578063715018a614610147575b600080fd5b61011f600480360381019061011a9190611a57565b610288565b005b610129610433565b005b61014560048036038101906101409190611b34565b61058d565b005b61014f61088b565b005b61016b60048036038101906101669190611b74565b610913565b005b610175610aba565b6040516101829190611bb0565b60405180910390f35b610193610ae3565b6040516101a09190611c53565b60405180910390f35b6101b1610c92565b6040516101be9190611cec565b60405180910390f35b6101cf610ca5565b005b6101d9610dff565b005b6101e3610f59565b005b6101ff60048036038101906101fa9190611b74565b6110fb565b60405161020c9190611d73565b60405180910390f35b61021d611223565b005b61023960048036038101906102349190611b74565b61137d565b005b61025560048036038101906102509190611b74565b611475565b005b610271600480360381019061026c9190611d8e565b611693565b60405161027f929190611dca565b60405180910390f35b600260003373ffffffffffffffffffffffffffffffffffffffff1673ffffffffffffffffffffffffffffffffffffffff16815260200190815260200160002060000160009054906101000a900460ff16610317576040517f08c379a000000000000000000000000000000000000000000000000000000000815260040161030e90611e46565b60405180910390fd5b6001600581111561032b5761032a611c75565b5b600060149054906101000a900460ff16600581111561034d5761034c611c75565b5b1461038d576040517f08c379a000000000000000000000000000000000000000000000000000000000815260040161038490611eb2565b60405180910390fd5b61039561181b565b818160000181905250600181908060018154018082558091505060019003906000526020600020906002020160009091909190915060008201518160000190805190602001906103e6929190611835565b506020820151816001015550507f92e393e9b54e2f801d3ea4beb0c5e71a21cc34a5d34b77d0fb8a3aa1650dc18f6001805490506040516104279190611ed2565b60405180910390a15050565b61043b61174f565b73ffffffffffffffffffffffffffffffffffffffff16610459610aba565b73ffffffffffffffffffffffffffffffffffffffff16146104af576040517f08c379a00000000000000000000000000000000000000000000000000000000081526004016104a690611f39565b60405180910390fd5b600460058111156104c3576104c2611c75565b5b600060149054906101000a900460ff1660058111156104e5576104e4611c75565b5b14610525576040517f08c379a000000000000000000000000000000000000000000000000000000000815260040161051c90611fa5565b60405180910390fd5b6005600060146101000a81548160ff0219169083600581111561054b5761054a611c75565b5b02179055507f0a97a4ee45751e2abf3e4fc8946939630b11b371ea8ae39ccdc3056e98f5cc3f60046005604051610583929190611fc5565b60405180910390a1565b600260003373ffffffffffffffffffffffffffffffffffffffff1673ffffffffffffffffffffffffffffffffffffffff16815260200190815260200160002060000160009054906101000a900460ff1661061c576040517f08c379a000000000000000000000000000000000000000000000000000000000815260040161061390611e46565b60405180910390fd5b600360058111156106305761062f611c75565b5b600060149054906101000a900460ff16600581111561065257610651611c75565b5b14610692576040517f08c379a000000000000000000000000000000000000000000000000000000000815260040161068990612060565b60405180910390fd5b60011515600260008473ffffffffffffffffffffffffffffffffffffffff1673ffffffffffffffffffffffffffffffffffffffff16815260200190815260200160002060000160019054906101000a900460ff1615151415610729576040517f08c379a0000000000000000000000000000000000000000000000000000000008152600401610720906120cc565b60405180910390fd5b600180549050811115610771576040517f08c379a000000000000000000000000000000000000000000000000000000000815260040161076890612138565b60405180910390fd5b80600260008473ffffffffffffffffffffffffffffffffffffffff1673ffffffffffffffffffffffffffffffffffffffff168152602001908152602001600020600101819055506001600260008473ffffffffffffffffffffffffffffffffffffffff1673ffffffffffffffffffffffffffffffffffffffff16815260200190815260200160002060000160016101000a81548160ff0219169083151502179055506001818154811061082757610826612158565b5b90600052602060002090600202016001016000815480929190610849906121b6565b91905055507f4d99b957a2bc29a30ebd96a7be8e68fe50a3c701db28a91436490b7d53870ca4828260405161087f9291906121ff565b60405180910390a15050565b61089361174f565b73ffffffffffffffffffffffffffffffffffffffff166108b1610aba565b73ffffffffffffffffffffffffffffffffffffffff1614610907576040517f08c379a00000000000000000000000000000000000000000000000000000000081526004016108fe90611f39565b60405180910390fd5b6109116000611757565b565b61091b61174f565b73ffffffffffffffffffffffffffffffffffffffff16610939610aba565b73ffffffffffffffffffffffffffffffffffffffff161461098f576040517f08c379a000000000000000000000000000000000000000000000000000000000815260040161098690611f39565b60405180910390fd5b60011515600260008373ffffffffffffffffffffffffffffffffffffffff1673ffffffffffffffffffffffffffffffffffffffff16815260200190815260200160002060000160009054906101000a900460ff16151514610a25576040517f08c379a0000000000000000000000000000000000000000000000000000000008152600401610a1c90612274565b60405180910390fd5b6000600260008373ffffffffffffffffffffffffffffffffffffffff1673ffffffffffffffffffffffffffffffffffffffff16815260200190815260200160002060000160006101000a81548160ff0219169083151502179055507fb6be2187d059cc2a55fe29e0e503b566e1e0f8c8780096e185429350acffd3dd81604051610aaf9190611bb0565b60405180910390a150565b60008060009054906101000a900473ffffffffffffffffffffffffffffffffffffffff16905090565b6060600580811115610af857610af7611c75565b5b600060149054906101000a900460ff166005811115610b1a57610b19611c75565b5b14610b5a576040517f08c379a0000000000000000000000000000000000000000000000000000000008152600401610b51906122e0565b60405180910390fd5b60008080600090505b600180549050811015610bdc5760018181548110610b8457610b83612158565b5b906000526020600020906002020160010154831015610bc95760018181548110610bb157610bb0612158565b5b90600052602060002090600202016001015492508091505b8080610bd4906121b6565b915050610b63565b5060018181548110610bf157610bf0612158565b5b90600052602060002090600202016000018054610c0d9061232f565b80601f0160208091040260200160405190810160405280929190818152602001828054610c399061232f565b8015610c865780601f10610c5b57610100808354040283529160200191610c86565b820191906000526020600020905b815481529060010190602001808311610c6957829003601f168201915b50505050509250505090565b600060149054906101000a900460ff1681565b610cad61174f565b73ffffffffffffffffffffffffffffffffffffffff16610ccb610aba565b73ffffffffffffffffffffffffffffffffffffffff1614610d21576040517f08c379a0000000000000000000000000000000000000000000000000000000008152600401610d1890611f39565b60405180910390fd5b60036005811115610d3557610d34611c75565b5b600060149054906101000a900460ff166005811115610d5757610d56611c75565b5b14610d97576040517f08c379a0000000000000000000000000000000000000000000000000000000008152600401610d8e90612060565b60405180910390fd5b6004600060146101000a81548160ff02191690836005811115610dbd57610dbc611c75565b5b02179055507f0a97a4ee45751e2abf3e4fc8946939630b11b371ea8ae39ccdc3056e98f5cc3f60036004604051610df5929190611fc5565b60405180910390a1565b610e0761174f565b73ffffffffffffffffffffffffffffffffffffffff16610e25610aba565b73ffffffffffffffffffffffffffffffffffffffff1614610e7b576040517f08c379a0000000000000000000000000000000000000000000000000000000008152600401610e7290611f39565b60405180910390fd5b60006005811115610e8f57610e8e611c75565b5b600060149054906101000a900460ff166005811115610eb157610eb0611c75565b5b14610ef1576040517f08c379a0000000000000000000000000000000000000000000000000000000008152600401610ee8906123d3565b60405180910390fd5b6001600060146101000a81548160ff02191690836005811115610f1757610f16611c75565b5b02179055507f0a97a4ee45751e2abf3e4fc8946939630b11b371ea8ae39ccdc3056e98f5cc3f60006001604051610f4f929190611fc5565b60405180910390a1565b610f6161174f565b73ffffffffffffffffffffffffffffffffffffffff16610f7f610aba565b73ffffffffffffffffffffffffffffffffffffffff1614610fd5576040517f08c379a0000000000000000000000000000000000000000000000000000000008152600401610fcc90611f39565b60405180910390fd5b60016005811115610fe957610fe8611c75565b5b600060149054906101000a900460ff16600581111561100b5761100a611c75565b5b1461104b576040517f08c379a000000000000000000000000000000000000000000000000000000000815260040161104290612465565b60405180910390fd5b600260018054905011611093576040517f08c379a000000000000000000000000000000000000000000000000000000000815260040161108a906124d1565b60405180910390fd5b6002600060146101000a81548160ff021916908360058111156110b9576110b8611c75565b5b02179055507f0a97a4ee45751e2abf3e4fc8946939630b11b371ea8ae39ccdc3056e98f5cc3f600160026040516110f1929190611fc5565b60405180910390a1565b6111036118bb565b600260003373ffffffffffffffffffffffffffffffffffffffff1673ffffffffffffffffffffffffffffffffffffffff16815260200190815260200160002060000160009054906101000a900460ff16611192576040517f08c379a000000000000000000000000000000000000000000000000000000000815260040161118990611e46565b60405180910390fd5b600260008373ffffffffffffffffffffffffffffffffffffffff1673ffffffffffffffffffffffffffffffffffffffff1681526020019081526020016000206040518060600160405290816000820160009054906101000a900460ff161515151581526020016000820160019054906101000a900460ff161515151581526020016001820154815250509050919050565b61122b61174f565b73ffffffffffffffffffffffffffffffffffffffff16611249610aba565b73ffffffffffffffffffffffffffffffffffffffff161461129f576040517f08c379a000000000000000000000000000000000000000000000000000000000815260040161129690611f39565b60405180910390fd5b600260058111156112b3576112b2611c75565b5b600060149054906101000a900460ff1660058111156112d5576112d4611c75565b5b14611315576040517f08c379a000000000000000000000000000000000000000000000000000000000815260040161130c90612563565b60405180910390fd5b6003600060146101000a81548160ff0219169083600581111561133b5761133a611c75565b5b02179055507f0a97a4ee45751e2abf3e4fc8946939630b11b371ea8ae39ccdc3056e98f5cc3f60026003604051611373929190611fc5565b60405180910390a1565b61138561174f565b73ffffffffffffffffffffffffffffffffffffffff166113a3610aba565b73ffffffffffffffffffffffffffffffffffffffff16146113f9576040517f08c379a00000000000000000000000000000000000000000000000000000000081526004016113f090611f39565b60405180910390fd5b600073ffffffffffffffffffffffffffffffffffffffff168173ffffffffffffffffffffffffffffffffffffffff161415611469576040517f08c379a0000000000000000000000000000000000000000000000000000000008152600401611460906125f5565b60405180910390fd5b61147281611757565b50565b61147d61174f565b73ffffffffffffffffffffffffffffffffffffffff1661149b610aba565b73ffffffffffffffffffffffffffffffffffffffff16146114f1576040517f08c379a00000000000000000000000000000000000000000000000000000000081526004016114e890611f39565b60405180910390fd5b6000600581111561150557611504611c75565b5b600060149054906101000a900460ff16600581111561152757611526611c75565b5b14611567576040517f08c379a000000000000000000000000000000000000000000000000000000000815260040161155e90612687565b60405180910390fd5b60011515600260008373ffffffffffffffffffffffffffffffffffffffff1673ffffffffffffffffffffffffffffffffffffffff16815260200190815260200160002060000160009054906101000a900460ff16151514156115fe576040517f08c379a00000000000000000000000000000000000000000000000000000000081526004016115f5906126f3565b60405180910390fd5b6001600260008373ffffffffffffffffffffffffffffffffffffffff1673ffffffffffffffffffffffffffffffffffffffff16815260200190815260200160002060000160006101000a81548160ff0219169083151502179055507fb6be2187d059cc2a55fe29e0e503b566e1e0f8c8780096e185429350acffd3dd816040516116889190611bb0565b60405180910390a150565b600181815481106116a357600080fd5b90600052602060002090600202016000915090508060000180546116c69061232f565b80601f01602080910402602001604051908101604052809291908181526020018280546116f29061232f565b801561173f5780601f106117145761010080835404028352916020019161173f565b820191906000526020600020905b81548152906001019060200180831161172257829003601f168201915b5050505050908060010154905082565b600033905090565b60008060009054906101000a900473ffffffffffffffffffffffffffffffffffffffff169050816000806101000a81548173ffffffffffffffffffffffffffffffffffffffff021916908373ffffffffffffffffffffffffffffffffffffffff1602179055508173ffffffffffffffffffffffffffffffffffffffff168173ffffffffffffffffffffffffffffffffffffffff167f8be0079c531659141344cd1fd0a4f28419497f9722a3daafe3b4186f6b6457e060405160405180910390a35050565b604051806040016040528060608152602001600081525090565b8280546118419061232f565b90600052602060002090601f01602090048101928261186357600085556118aa565b82601f1061187c57805160ff19168380011785556118aa565b828001600101855582156118aa579182015b828111156118a957825182559160200191906001019061188e565b5b5090506118b791906118e0565b5090565b6040518060600160405280600015158152602001600015158152602001600081525090565b5b808211156118f95760008160009055506001016118e1565b5090565b6000604051905090565b600080fd5b600080fd5b600080fd5b600080fd5b6000601f19601f8301169050919050565b7f4e487b7100000000000000000000000000000000000000000000000000000000600052604160045260246000fd5b6119648261191b565b810181811067ffffffffffffffff821117156119835761198261192c565b5b80604052505050565b60006119966118fd565b90506119a2828261195b565b919050565b600067ffffffffffffffff8211156119c2576119c161192c565b5b6119cb8261191b565b9050602081019050919050565b82818337600083830152505050565b60006119fa6119f5846119a7565b61198c565b905082815260208101848484011115611a1657611a15611916565b5b611a218482856119d8565b509392505050565b600082601f830112611a3e57611a3d611911565b5b8135611a4e8482602086016119e7565b91505092915050565b600060208284031215611a6d57611a6c611907565b5b600082013567ffffffffffffffff811115611a8b57611a8a61190c565b5b611a9784828501611a29565b91505092915050565b600073ffffffffffffffffffffffffffffffffffffffff82169050919050565b6000611acb82611aa0565b9050919050565b611adb81611ac0565b8114611ae657600080fd5b50565b600081359050611af881611ad2565b92915050565b6000819050919050565b611b1181611afe565b8114611b1c57600080fd5b50565b600081359050611b2e81611b08565b92915050565b60008060408385031215611b4b57611b4a611907565b5b6000611b5985828601611ae9565b9250506020611b6a85828601611b1f565b9150509250929050565b600060208284031215611b8a57611b89611907565b5b6000611b9884828501611ae9565b91505092915050565b611baa81611ac0565b82525050565b6000602082019050611bc56000830184611ba1565b92915050565b600081519050919050565b600082825260208201905092915050565b60005b83811015611c05578082015181840152602081019050611bea565b83811115611c14576000848401525b50505050565b6000611c2582611bcb565b611c2f8185611bd6565b9350611c3f818560208601611be7565b611c488161191b565b840191505092915050565b60006020820190508181036000830152611c6d8184611c1a565b905092915050565b7f4e487b7100000000000000000000000000000000000000000000000000000000600052602160045260246000fd5b60068110611cb557611cb4611c75565b5b50565b6000819050611cc682611ca4565b919050565b6000611cd682611cb8565b9050919050565b611ce681611ccb565b82525050565b6000602082019050611d016000830184611cdd565b92915050565b60008115159050919050565b611d1c81611d07565b82525050565b611d2b81611afe565b82525050565b606082016000820151611d476000850182611d13565b506020820151611d5a6020850182611d13565b506040820151611d6d6040850182611d22565b50505050565b6000606082019050611d886000830184611d31565b92915050565b600060208284031215611da457611da3611907565b5b6000611db284828501611b1f565b91505092915050565b611dc481611afe565b82525050565b60006040820190508181036000830152611de48185611c1a565b9050611df36020830184611dbb565b9392505050565b7f596f75277265206e6f74206120766f7465720000000000000000000000000000600082015250565b6000611e30601283611bd6565b9150611e3b82611dfa565b602082019050919050565b60006020820190508181036000830152611e5f81611e23565b9050919050565b7f50726f706f73616c7320617265206e6f7420616c6c6f77656420796574000000600082015250565b6000611e9c601d83611bd6565b9150611ea782611e66565b602082019050919050565b60006020820190508181036000830152611ecb81611e8f565b9050919050565b6000602082019050611ee76000830184611dbb565b92915050565b7f4f776e61626c653a2063616c6c6572206973206e6f7420746865206f776e6572600082015250565b6000611f23602083611bd6565b9150611f2e82611eed565b602082019050919050565b60006020820190508181036000830152611f5281611f16565b9050919050565b7f566f74696e672073657373696f6e206973206e6f7420636c6f73656400000000600082015250565b6000611f8f601c83611bd6565b9150611f9a82611f59565b602082019050919050565b60006020820190508181036000830152611fbe81611f82565b9050919050565b6000604082019050611fda6000830185611cdd565b611fe76020830184611cdd565b9392505050565b7f566f74696e672073657373696f6e20686176656e74207374617274656420796560008201527f7400000000000000000000000000000000000000000000000000000000000000602082015250565b600061204a602183611bd6565b915061205582611fee565b604082019050919050565b600060208201905081810360008301526120798161203d565b9050919050565b7f596f75206861766520616c726561647920766f74656400000000000000000000600082015250565b60006120b6601683611bd6565b91506120c182612080565b602082019050919050565b600060208201905081810360008301526120e5816120a9565b9050919050565b7f50726f706f73616c206e6f7420666f756e640000000000000000000000000000600082015250565b6000612122601283611bd6565b915061212d826120ec565b602082019050919050565b6000602082019050818103600083015261215181612115565b9050919050565b7f4e487b7100000000000000000000000000000000000000000000000000000000600052603260045260246000fd5b7f4e487b7100000000000000000000000000000000000000000000000000000000600052601160045260246000fd5b60006121c182611afe565b91507fffffffffffffffffffffffffffffffffffffffffffffffffffffffffffffffff8214156121f4576121f3612187565b5b600182019050919050565b60006040820190506122146000830185611ba1565b6122216020830184611dbb565b9392505050565b7f4e6f7420726567697374657265642e0000000000000000000000000000000000600082015250565b600061225e600f83611bd6565b915061226982612228565b602082019050919050565b6000602082019050818103600083015261228d81612251565b9050919050565b7f566f74657320617265206e6f742074616c6c6965642079657400000000000000600082015250565b60006122ca601983611bd6565b91506122d582612294565b602082019050919050565b600060208201905081810360008301526122f9816122bd565b9050919050565b7f4e487b7100000000000000000000000000000000000000000000000000000000600052602260045260246000fd5b6000600282049050600182168061234757607f821691505b6020821081141561235b5761235a612300565b5b50919050565b7f5265676973746572696e672070726f706f73616c732063616e7420626520737460008201527f6172746564206e6f770000000000000000000000000000000000000000000000602082015250565b60006123bd602983611bd6565b91506123c882612361565b604082019050919050565b600060208201905081810360008301526123ec816123b0565b9050919050565b7f5265676973746572696e672070726f706f73616c7320686176656e742073746160008201527f7274656420796574000000000000000000000000000000000000000000000000602082015250565b600061244f602883611bd6565b915061245a826123f3565b604082019050919050565b6000602082019050818103600083015261247e81612442565b9050919050565b7f4e656564206d6f7265207468616e20312070726f706f73616c00000000000000600082015250565b60006124bb601983611bd6565b91506124c682612485565b602082019050919050565b600060208201905081810360008301526124ea816124ae565b9050919050565b7f5265676973746572696e672070726f706f73616c73207068617365206973206e60008201527f6f742066696e6973686564000000000000000000000000000000000000000000602082015250565b600061254d602b83611bd6565b9150612558826124f1565b604082019050919050565b6000602082019050818103600083015261257c81612540565b9050919050565b7f4f776e61626c653a206e6577206f776e657220697320746865207a65726f206160008201527f6464726573730000000000000000000000000000000000000000000000000000602082015250565b60006125df602683611bd6565b91506125ea82612583565b604082019050919050565b6000602082019050818103600083015261260e816125d2565b9050919050565b7f566f7465727320726567697374726174696f6e206973206e6f74206f70656e2060008201527f7965740000000000000000000000000000000000000000000000000000000000602082015250565b6000612671602383611bd6565b915061267c82612615565b604082019050919050565b600060208201905081810360008301526126a081612664565b9050919050565b7f416c726561647920726567697374657265640000000000000000000000000000600082015250565b60006126dd601283611bd6565b91506126e8826126a7565b602082019050919050565b6000602082019050818103600083015261270c816126d0565b905091905056fea2646970667358221220fd122ba7a2aeed0799618e00a77e029c53866a1c2b0026508083744c04de18b364736f6c63430008090033",
  "immutableReferences": {},
  "source": "// SPDX-License-Identifier: MIT\n\npragma solidity ^0.8.7;\n\nimport \"@openzeppelin/contracts/access/Ownable.sol\";\n\ncontract Voting is Ownable {\n    struct Voter {\n        bool isRegistered;\n        bool hasVoted;\n        uint votedProposalId;\n    }\n    struct Proposal {\n        string description;\n        uint voteCount;\n    }\n\n    enum WorkflowStatus {\n        RegisteringVoters,\n        ProposalsRegistrationStarted,\n        ProposalsRegistrationEnded,\n        VotingSessionStarted,\n        VotingSessionEnded,\n        VotesTallied\n    }\n    \n    event VoterRegistered(address voterAddress); \n    event WorkflowStatusChange(WorkflowStatus previousStatus, WorkflowStatus newStatus);\n    event ProposalRegistered(uint proposalId);\n    event Voted (address voter, uint proposalId);\n\n    WorkflowStatus public workflowStatus;\n    Proposal[] public proposalsArray;\n    mapping (address => Voter) private voters;\n    mapping (uint => Proposal[]) private proposals;\n\n\n    constructor() Ownable() {\n        workflowStatus = WorkflowStatus.RegisteringVoters;\n        addVoter(msg.sender);\n    }\n\n    modifier onlyVoters() {\n        require(voters[msg.sender].isRegistered, \"You're not a voter\");\n        _;\n    }\n    \n    // getters\n    function getVoter(address _addr) external onlyVoters view returns (Voter memory) {\n        return voters[_addr];\n    }\n    \n    function getWinner() external view returns (string memory) {\n        require(workflowStatus == WorkflowStatus.VotesTallied, 'Votes are not tallied yet');\n        uint voteCount = 0;\n        uint winnerId;\n\n        for (uint i = 0; i < proposalsArray.length; i++) {\n            if (voteCount < proposalsArray[i].voteCount) {\n                voteCount = proposalsArray[i].voteCount;\n                winnerId = i;\n            }\n        }\n        \n        return proposalsArray[winnerId].description;\n    }\n\n    // proposal handle\n    function addProposal(string memory _desc) external onlyVoters {\n        require(workflowStatus == WorkflowStatus.ProposalsRegistrationStarted, 'Proposals are not allowed yet');\n\n        Proposal memory proposal;\n        proposal.description = _desc;\n        proposalsArray.push(proposal);\n        emit ProposalRegistered(proposalsArray.length);\n    }\n \n    // voters handle\n    function addVoter(address _addr) public onlyOwner {\n        require(workflowStatus == WorkflowStatus.RegisteringVoters, 'Voters registration is not open yet');\n        require(voters[_addr].isRegistered != true, 'Already registered');\n    \n        voters[_addr].isRegistered = true;\n        emit VoterRegistered(_addr);\n    }\n \n    function deleteVoter(address _addr) external onlyOwner {\n        require(voters[_addr].isRegistered == true, 'Not registered.');\n\n        voters[_addr].isRegistered = false;\n        emit VoterRegistered(_addr);\n    }\n\n    // vote handle\n    function setVote(address _addr, uint _id) external onlyVoters {\n        require(workflowStatus == WorkflowStatus.VotingSessionStarted, 'Voting session havent started yet');\n        require(voters[_addr].hasVoted != true, 'You have already voted');\n        require(_id <= proposalsArray.length, 'Proposal not found');\n\n        voters[_addr].votedProposalId = _id;\n        voters[_addr].hasVoted = true;\n        proposalsArray[_id].voteCount++;\n\n        emit Voted(_addr, _id);\n    }\n\n    // state handle\n    function startProposalsRegistering() external onlyOwner {\n        require(workflowStatus == WorkflowStatus.RegisteringVoters, 'Registering proposals cant be started now');\n\n        workflowStatus = WorkflowStatus.ProposalsRegistrationStarted;\n        emit WorkflowStatusChange(WorkflowStatus.RegisteringVoters, WorkflowStatus.ProposalsRegistrationStarted);\n    }\n\n    function endProposalsRegistering() external onlyOwner {\n        require(workflowStatus == WorkflowStatus.ProposalsRegistrationStarted, 'Registering proposals havent started yet');\n        require(proposalsArray.length > 2 , 'Need more than 1 proposal');\n\n        workflowStatus = WorkflowStatus.ProposalsRegistrationEnded;\n        emit WorkflowStatusChange(WorkflowStatus.ProposalsRegistrationStarted, WorkflowStatus.ProposalsRegistrationEnded);\n    }\n\n    function startVotingSession() external onlyOwner {\n        require(workflowStatus == WorkflowStatus.ProposalsRegistrationEnded, 'Registering proposals phase is not finished');\n        \n        workflowStatus = WorkflowStatus.VotingSessionStarted;\n        emit WorkflowStatusChange(WorkflowStatus.ProposalsRegistrationEnded, WorkflowStatus.VotingSessionStarted);\n    }\n\n    function endVotingSession() external onlyOwner {\n        require(workflowStatus == WorkflowStatus.VotingSessionStarted, 'Voting session havent started yet');\n        \n        workflowStatus = WorkflowStatus.VotingSessionEnded;\n        emit WorkflowStatusChange(WorkflowStatus.VotingSessionStarted, WorkflowStatus.VotingSessionEnded);\n    }\n\n    function votesTally() external onlyOwner {\n        require(workflowStatus == WorkflowStatus.VotingSessionEnded, 'Voting session is not closed');\n\n        workflowStatus = WorkflowStatus.VotesTallied;\n        emit WorkflowStatusChange(WorkflowStatus.VotingSessionEnded, WorkflowStatus.VotesTallied);\n    }\n}",
  "sourcePath": "/home/anas/dev/votingSystem/contracts/Voting.sol",
  "compiler": {
    "name": "solc",
    "version": "0.8.9+commit.e5eed63a.Emscripten.clang"
  },
  "schemaVersion": "3.4.3",
  "updatedAt": "2021-11-05T09:38:33.742Z",
  "networkType": "ethereum",
  "devdoc": {
    "kind": "dev",
    "methods": {
      "owner()": {
        "details": "Returns the address of the current owner."
      },
      "renounceOwnership()": {
        "details": "Leaves the contract without owner. It will not be possible to call `onlyOwner` functions anymore. Can only be called by the current owner. NOTE: Renouncing ownership will leave the contract without an owner, thereby removing any functionality that is only available to the owner."
      },
      "transferOwnership(address)": {
        "details": "Transfers ownership of the contract to a new account (`newOwner`). Can only be called by the current owner."
      }
    },
    "version": 1
  },
  "userdoc": {
    "kind": "user",
    "methods": {},
    "version": 1
  }
}